:100000000C9483000C94AB000C94AB000C94AB00EC
:100010000C94AB000C94AB000C94AB000C94AB00B4
:100020000C94AB000C94AB000C94AB000C94F40853
:100030000C94AB000C94D10B0C94030C0C94AB00FF
:100040000C94AB000C94AB000C94AB000C943604F5
:100050000C94AB00084AD73B3BCE016E84BCBFFD7D
:10006000C12F3D6C74319ABD56833DDA3D00C77F88
:1000700011BED9E4BB4C3E916BAAAABE0000008021
:100080003F00000000020000000000000000050426
:100090000007000000000000000000000000000059
:1000A0000000010204081020408001020408102012
:1000B0004080010204081020408001020408102042
:1000C0004080020202020202020204040404040448
:1000D00004040303030303030303010101010101FA
:1000E00001010000390036003300300000003B0001
:1000F00038003500320000003A003700340031008B
:1001000032025003330C11241FBECFE5D8E0DEBF0E
:10011000CDBF10E0A0E6B0E0EEE2F6E202C005904E
:100120000D92AA3EB107D9F722E0AAEEB0E001C0D5
:100130001D92A339B207E1F710E0C3E8D0E004C094
:100140002197FE010E94DB11C038D107C9F70E9438
:100150006B0E0C9415130C94000026E040E052EC5A
:1001600061E070E082EF91E00E94740B62E770E062
:1001700082EF91E00E94AD0C43E369E182E091E0FF
:100180000E947708811107C06FE770E082EF91E06D
:100190000E94AD0CFFCF6DE870E082EF91E00E940D
:1001A000AD0C70E060E082E091E00E94BE066BE979
:1001B00070E082EF91E00E949A0C82E091E00E9450
:1001C000D70662E070E002C0660F771F8A95E2F7FB
:1001D0004AE050E082EF91E00E94580D64EA70E03E
:1001E00082EF91E00C94AD0C4F925F926F927F92F0
:1001F0008F929F92AF92BF92CF92DF92EF92FF9237
:10020000CF93DF93CDB7DEB728970FB6F894DEBF54
:100210000FBECDBF82E091E00E94E306C0900F01C7
:10022000D0901001E0901101F09012016091130143
:100230007091140180911501909116019B01AC0100
:100240000E94E8102B013C01A7019601C701B601ED
:100250000E94E810A30192010E947E0E0E945B1191
:100260009B01AC0180900B0190900C01A0900D01BE
:10027000B0900E01C501B4010E94FD0E26EE3EE2D3
:1002800045E652E40E94E81069837A838B839C835D
:100290006093FA007093FB008093FC009093FD0044
:1002A000A5019401C501B4010E94E810A3019201C7
:1002B0000E947E0E0E945B119B01AC01C701B6013A
:1002C0000E94FD0E26EE3EE245E652E40E94E81052
:1002D0006D837E838F8398876093FE007093FF0009
:1002E00080930001909301018090F6009090F700B8
:1002F000A090F800B090F9008092F2009092F30084
:10030000A092F400B092F500209166003091670051
:10031000409168005091690060916E0070916F008B
:1003200080917000909171000E947E0E6B017C01A3
:10033000C092EE00D092EF00E092F000F092F10057
:1003400020916A0030916B0040916C0050916D00DB
:100350000E947E0E9B01AC01C701B6010E94610F95
:100360002B013C014092EA005092EB006092EC00BD
:100370007092ED00A501940169817A818B819C8145
:100380000E947D0EA30192010E94E810A501940134
:100390000E947E0E6093F6007093F7008093F80041
:1003A0009093F900A301920160E070E080E89FE380
:1003B0000E947D0EA70196010E94E81060936E00D6
:1003C00070936F00809370009093710022E030E092
:1003D0004D815E816F81788582EF91E00E94560E9B
:1003E00062EA70E082EF91E00E949A0C4091FA007C
:1003F0005091FB006091FC007091FD0022E030E024
:1004000082EF91E00E94560E62EA70E082EF91E086
:100410000E949A0C4091F6005091F7006091F8000C
:100420007091F90022E030E082EF91E00E94580ED6
:1004300064E170E080E090E028960FB6F894DEBFAB
:100440000FBECDBFDF91CF91FF90EF90DF90CF90A7
:10045000BF90AF909F908F907F906F905F904F90E4
:100460000C94A20965E271E082E091E00C94C10570
:100470008091550190915601891B990B0895909197
:100480005601809155012FEF3FEF981748F4E92F5F
:10049000F0E0E95AFE4F208130E09F5F90935601D3
:1004A000C9010895E091560180915501E81730F493
:1004B000F0E0E95AFE4F808190E008958FEF9FEFC2
:1004C00008950895CF93DF931F92CDB7DEB7698368
:1004D000209131012223F9F020913201203258F08D
:1004E00021E030E0FC013383228390E080E00F9034
:1004F000DF91CF91089580913301E82FF0E0EC5C1B
:10050000FE4F998190838F5F8093330180933201F6
:1005100081E090E0ECCF61E0CE0101960E941004F2
:10052000F7CFCF92DF92EF92FF920F931F93CF936B
:10053000DF937C01CB018A0120913101222389F0D4
:10054000EB016B01C40ED51ECC15DD0569F0699178
:10055000D701ED91FC910190F081E02DC701099543
:10056000F3CF642F0E941004C801DF91CF911F9137
:100570000F91FF90EF90DF90CF9008951092560169
:100580001092550110923301109232010C946103C4
:1005900081E08093310160935401109233011092F5
:1005A000320108950C94C8020F93062F21E0409168
:1005B000320164E371E0809154010E94BC03109207
:1005C000330110923201109231010F9108954F9230
:1005D0005F926F927F92AF92BF92CF92EF92FF9213
:1005E0000F931F93CF93DF935C01F62ED42F280136
:1005F0003901EE2019F10E94C802CE2DC43008F056
:10060000C3E0C150B8F028E0C29FC0011124A3018B
:10061000920104C056954795379527958A95D2F74C
:10062000B901D501ED91FC910190F081E02DC5015A
:100630000995E7CF60E0C5010E94D4024D2FD13269
:1006400008F040E22C2D67E571E08F2D0E947703C2
:100650001092560180935501DF91CF911F910F9118
:10066000FF90EF90CF90BF90AF907F906F905F9092
:100670004F900895CF92EF920F931F93C22EE12CCB
:1006800000E010E098010E94E7021F910F91EF90A7
:10069000CF90089521E00C943A0361E00C94D402C9
:1006A000E5E2F1E01382128288EE93E0A0E0B0E090
:1006B00084839583A683B7838AEA90E091838083BD
:1006C00008951092E40181E08093E2011092E1012B
:1006D00061E081E10E94590A61E080E10E94590ACB
:1006E0000898099884E380B985E486BF089541326B
:1006F00008F040C09091E4019111FCCF91E09093FB
:10070000E4012093E2012FEF209377011092BC01C6
:10071000240F2093BB019093E3019091E301880F94
:10072000892B8093E3018091E1018130F1F41092F3
:10073000E1018091E30183B906B603FCFACF85ECB1
:1007400086BF8091E4018130E1F38091BC01841780
:1007500010F44091BC01ADEBB1E0962FFB018E2F60
:10076000891B841720F0842F089585EEE9CF8D91A1
:100770008193F5CF40E0F7CF0F93413208F048C0A6
:100780009091E4019111FCCF92E09093E4010093E9
:10079000E2019FEF909377011092BC014093BB015F
:1007A000362FADEBB1E0FB019E2F931B941758F150
:1007B0001092E3019091E301880F892B8093E3016C
:1007C0008091E101813011F51092E1018091E30106
:1007D00083B906B603FCFACF85EC86BF222321F04D
:1007E0008091E4018230D1F3809177018F3F91F0C5
:1007F00080917701803281F080917701803371F0B0
:1008000084E00F91089591919D93CECF85EEE5CF31
:1008100081E0F7CF80E0F5CF82E0F3CF83E0F1CF46
:10082000613298F42091E401243089F460939901B5
:10083000282FABE9B1E0FC018E2F821B861710F048
:1008400080E0089581918D93F7CF81E0089582E053
:10085000089585ED86BF06B604FCFDCF1092E40135
:10086000089585EC86BF1092E40108951F920F92BF
:100870000FB60F9211242F933F934F935F936F9373
:100880007F938F939F93AF93BF93EF93FF9381B128
:10089000887F803609F44CC008F03FC0883209F4E4
:1008A000A4C018F5803109F49AC0B8F4882309F47B
:1008B000F2C0883009F493C0FF91EF91BF91AF91DE
:1008C0009F918F917F916F915F914F913F912F9168
:1008D0000F900FBE0F901F901895883109F485C0B6
:1008E000803251F78093770115C0803409F499C0A4
:1008F00048F48033B9F38833F9F6809377010E9486
:100900003104DACF803509F481C0883509F491C00B
:10091000883491F60E942904CFCF883909F487C022
:1009200030F5883729F050F4883611F0803721F6F9
:1009300083E08093E4011092780154C0883809F470
:1009400076C0803919F0803809F0B6CF80917801EF
:10095000803208F06CC0E091780181E08E0F8093C6
:10096000780183B1F0E0E758FE4F80833BC0803BC5
:1009700039F0E0F4803A09F473C0883A09F09CCF6A
:1009800084E08093E40110929A0110929901E09121
:10099000DF01F091E00109958091990181110FC06B
:1009A00081E08093990110929B0109C0803C09F479
:1009B00070C0883C09F46DC0883B09F07DCFE091A0
:1009C0009A0181E08E0F80939A01F0E0E556FE4F88
:1009D000808183B990919A018091990126C080917C
:1009E000E30183B985EC86BF67CF9091BC0180910C
:1009F000BB01981748F5E091BC0181E08E0F809310
:100A0000BC01F0E0E354FE4F8081EBCFE091BC01EC
:100A100081E08E0F8093BC0183B1F0E0E354FE4F80
:100A200080839091BC018091BB019817D8F285E832
:100A3000DACFE091BC0181E08E0F8093BC0183B1DD
:100A4000F0E0E354FE4F80838091E201811162CF98
:100A500081E08093E10184EA86BF1092E4012CCF0B
:100A60000E94310480917801803230F4E091780165
:100A7000F0E0E758FE4F10826091780170E0E0915D
:100A8000DD01F091DE0189E791E00995109278018E
:100A900013CF85ECE1CF109277013CCF08950895F4
:100AA0000F931F93CF93DF938C01EB0188E2FB013F
:100AB00011928A95E9F74BE050E066EB70E0CE01C9
:100AC0000E9406131B8681E090E0A0E0B0E08C87D6
:100AD0009D87AE87BF87F801478D50A161A172A1A4
:100AE000488B598B6A8B7B8B8C8B9D8BAE8BBF8B92
:100AF0001CA21DA21EA21FA2188E198E1A8E1B8E5A
:100B00001C8E1D8E1E8E1F8E18A219A21AA21BA249
:100B1000DF91CF911F910F9108950C947A0E20913F
:100B2000E701222381F03FB7F8942091E7012130BB
:100B300069F42BB72093E5014BB72091E60120958E
:100B400024232BBF3FBF8DB99EB908953093E50193
:100B5000FACF8091E701882361F09FB7F894209144
:100B6000E7018091E501213019F48BBF9FBF089503
:100B70008FBF0895DC01ED91FC910190F081E02D93
:100B80000994FC0181EC90E0918380838FEF828F48
:100B9000838F848F858F8FEF9FEFDC01878F90A3EA
:100BA000A1A3B2A3768B658B0895CF92DF92EF92CB
:100BB000FF920F931F93CF93DF93FC01258D2F3F5F
:100BC00079F46FB90000779BFECF1FB1812FDF91C1
:100BD000CF911F910F91FF90EF90DF90CF900895EC
:100BE000062FEC0110E087E0E82EF12CCC24C39412
:100BF000D12C110F60E08D8D0E94590AB6010E2C88
:100C000001C0660F0A94EAF760238B8D0E94590A8F
:100C100061E08D8D0E94590A8C8D0E94870A892B74
:100C200009F01160F1E0EF1AF10818F7CFCF0F9338
:100C30001F93CF93DF93EC01162F042F8A8D8F3FE4
:100C400009F56E8D8D899E890E94C8028D899E89C5
:100C5000DC01ED91FC910190F081E02D612F09956F
:100C60008D899E89DC01ED91FC910190F081E02D50
:100C7000602F09958D899E89DF91CF911F910F91EA
:100C80000C944D038D8D8F3F21F482E591E00E94FD
:100C90008F0560E08A8D0E94590A612F6F77CE011F
:100CA0000E94D505602FCE010E94D50561E08A8D96
:100CB0000E94590A8D8D8F3F31F4DF91CF911F91A2
:100CC0000F910C94A905DF91CF911F910F91089579
:100CD0001F93CF93DF93EC01162F8A8D8F3F79F509
:100CE0006E8D062E000C770B8D899E890E94D20294
:100CF0008D899E89DC01ED91FC910190F081E02DC0
:100D0000612F09958D899E890E944D036E8D062E57
:100D1000000C770B41E050E08D899E890E944A03C8
:100D20008D899E89DC01ED91FC910680F781E02D93
:100D30000995182F812FDF91CF911F9108958D8DE7
:100D40008F3F21F482E591E00E948F0560E08A8D5B
:100D50000E94590A612F6068CE010E94D50560E0AB
:100D6000CE010E94D505182F61E08A8D0E94590A94
:100D70008D8D8F3FF9F60E94A905DCCF0F931F934D
:100D8000CF93DF938C01EB0163E20E946806AE0112
:100D900094E0440F551F9A95E1F78F7C482B63E24E
:100DA000C801DF91CF911F910F910C94170663E258
:100DB0000E94680690E024E0959587952A95E1F7D2
:100DC000837099270895CF92DF92EF92FF92CF938D
:100DD000DF93EC018A8D8F3F09F0C2C06E8D062E25
:100DE000000C770B8D899E890E94D20268EA70E020
:100DF0008D899E890E94BA058D899E890E944D0326
:100E00006E8D062E000C770B46E050E08D899E8992
:100E10000E944A038D899E89DC01ED91FC91068038
:100E2000F781E02D09959C838B838D899E89DC0158
:100E3000ED91FC910680F781E02D099520E0382F97
:100E40008B819C81822B932B9C838B838D899E89A4
:100E5000DC01ED91FC910680F781E02D09959E83E0
:100E60008D838D899E89DC01ED91FC910680F7814F
:100E7000E02D099520E0382F8D819E81822B932BC8
:100E80009E838D838D899E89DC01ED91FC91068086
:100E9000F781E02D099598878F838D899E89DC01E4
:100EA000ED91FC910680F781E02D099520E0382F27
:100EB0008F819885822B932B98878F83CE010E94F8
:100EC000D70665E575E0833071F060E070E182304F
:100ED00051F06EEF7FE1813031F06CEF7FE38823DA
:100EE00011F061E070E090E080E00E9402106B0180
:100EF0007C016B817C81072E000C880B990B0E9472
:100F00000410A70196010E94610F69877A878B8779
:100F10009C876D817E81072E000C880B990B0E94A7
:100F20000410A70196010E94610F6D877E878F874D
:100F3000988B6F817885072E000C880B990B0E9487
:100F40000410A70196010E94610F698B7A8B8B8B2D
:100F50009C8BDF91CF91FF90EF90DF90CF90089521
:100F60008D8D8F3F21F482E591E00E948F0560E036
:100F70008A8D0E94590A68EECE010E94D5056FEF56
:100F8000CE010E94D50590E09C838B836FEFCE014C
:100F90000E94D5052B813C81382B3C832B836FEF3E
:100FA000CE010E94D50590E09E838D836FEFCE0128
:100FB0000E94D5052D813E81382B3E832D836FEF16
:100FC000CE010E94D50590E098878F836FEFCE0108
:100FD0000E94D5052F813885382B38872F8361E013
:100FE0008A8D0E94590A8D8D8F3F09F067CF0E942C
:100FF000A90564CF0F931F93CF93DF938C01EB016F
:10100000FB01349680E2DF011D928A95E9F784E2C4
:1010100090E0A0E0B0E088839983AA83BB83F801C5
:10102000878D90A1A1A1B2A18C839D83AE83BF8344
:1010300081E090E0A0E0B0E088879987AA87BB872D
:10104000188A198A1A8A1B8AC8010E94E3062AE0B4
:1010500038EE4CE151E4D80119966D917D918D9156
:101060009C911C970E94E8106C8B7D8B8E8B9F8BC4
:101070002AE038EE4CE151E4F801658576858785F4
:1010800090890E94E810688F798F8A8F9B8F2AE061
:1010900038EE4CE151E4D80151966D917D918D91DE
:1010A0009C9154970E94E8106C8F7D8F8E8F9F8F3C
:1010B00081E0DF91CF911F910F9108950F931F93BE
:1010C000CF93DF938C01EB0160E20E946806AE01D2
:1010D00094E0440F551F9A95E1F78F70482B60E21A
:1010E000C801DF91CF911F910F910C941706CF93F8
:1010F000DF93EC016E8F498F8A8D8F3F41F58D898B
:101100009E890E94BE026FE0CE010E946806998D02
:10111000981336C047E060E2CE010E94170667E0F0
:1011200070E0CE010E945E0848E863E2CE010E94B2
:10113000170640E162E2CE010E94170640E86FE127
:10114000CE010E94170681E0DF91CF91089561E002
:101150000E94590A61E08A8D0E941D0A8D8D8F3F81
:1011600019F40E94C208CFCF61E00E941D0A61E01D
:101170008B8D0E941D0A60E08C8D0E941D0AC3CFDA
:1011800080E0E2CFCF93CFB7F8948091E80181114E
:1011900023C0E6ECF0E08491E6EAF0E09491E82FD9
:1011A000F0E0EE0FFF1FEA50FF4FA591B491EC91D4
:1011B000E92321F461E084E00E94590A61E084E0BF
:1011C0000E941D0A6C9A6E9A61E087E00E941D0AD7
:1011D00061E085E00E941D0A8091E8018F5F8093A5
:1011E000E801CFBFCF9108951F920F920FB60F92D3
:1011F00011242F933F938F939F93AF93BF9380912D
:10120000EA019091EB01A091EC01B091ED013091D8
:10121000E9012DE2230F2D3758F50196A11DB11DCF
:101220002093E9018093EA019093EB01A093EC01F4
:10123000B093ED018091EE019091EF01A091F0014A
:10124000B091F1010196A11DB11D8093EE01909323
:10125000EF01A093F001B093F101BF91AF919F9185
:101260008F913F912F910F900FBE0F901F90189567
:1012700020EB230F0296A11DB11DD2CF0F931F9318
:101280003FB7F8948091EE019091EF01A091F001A9
:10129000B091F10122B708B600FE05C02F3F19F04A
:1012A0000196A11DB11D3FBFBA2FA92F982F8827E6
:1012B000820F911DA11DB11DAC01BD01E2E0440FE3
:1012C000551F661F771FEA95D1F78C019D01F2E04B
:1012D0003695279517950795FA95D1F7400F511F29
:1012E000621F731F480F591F6A1F7B1F8C019D01CE
:1012F000E3E03695279517950795EA95D1F7400FC6
:10130000511F621F731F8C019D01F5E036952795D3
:1013100017950795FA95D1F7400F511F621F731F5C
:1013200014E0B695A795979587951A95D1F78A01F8
:101330009B01081B190B2A0B3B0BC901B8011F911C
:101340000F9108958F929F92AF92BF92CF92DF92AA
:10135000EF92FF926B017C010E943E094B015C0100
:10136000C114D104E104F104E9F00E947C0E0E9452
:101370003E09681979098A099B09683E734081050D
:10138000910570F321E0C21AD108E108F10888EE56
:10139000880E83E0981EA11CB11CC114D104E10485
:1013A000F10429F7FF90EF90DF90CF90BF90AF90BE
:1013B0009F908F900895789483B7826083BF83B79E
:1013C000816083BF83B7806483BF83B7886083BF36
:1013D00089B7816089BF1EBC8EB582608EBD8EB517
:1013E00081608EBD8FB581608FBD85B5846085BD00
:1013F00085B5806485BD329A319A3098379A1AB88B
:101400000895843059F028F4813099F0823089F0C1
:101410000895853039F0873041F008958FB58F7782
:101420008FBD08958FB58F7DFBCF85B58F7D85BD31
:10143000089583B78F7D83BF0895CF93DF9390E0A6
:10144000FC01EE55FF4F24918E539F4FFC01849178
:101450008823C9F090E0880F991FFC01EA50FF4FE4
:10146000A591B491FC01E451FF4FC591D491611154
:101470000DC09FB7F8948C91209582238C9388811E
:10148000282328839FBFDF91CF910895623051F4C4
:101490009FB7F8943C91822F809583238C93E881A9
:1014A0002E2BEFCF8FB7F894EC912E2B2C938FBF70
:1014B000EACF1F93CF93DF93282F30E0F901EE5747
:1014C000FF4F8491F901EE55FF4FD491F901EE538E
:1014D000FF4FC491CC23A9F0162F81110E94010A5D
:1014E000EC2FF0E0EE0FFF1FE451FF4FA591B491F8
:1014F0008FB7F894EC91111108C0D095DE23DC93DE
:101500008FBFDF91CF911F910895DE2BF8CFCF933E
:10151000DF93282F30E0F901EE57FF4F8491F90156
:10152000EE55FF4FD491F901EE53FF4FC491CC23F8
:10153000A1F081110E94010AEC2FF0E0EE0FFF1FD5
:10154000EE51FF4FA591B491EC91ED2381E090E035
:1015500009F480E0DF91CF91089580E090E0FACF28
:10156000FC01918D228D892F90E0805C9F4F821B22
:1015700091098F7399270895FC01918D828D981799
:1015800031F0828DE80FF11D858D90E008958FEF89
:101590009FEF0895FC01918D828D981761F0A28DC7
:1015A000AE0FBF2FB11D5D968C91928D9F5F9F7383
:1015B000928F90E008958FEF9FEF089589E29CE06D
:1015C000892B49F080E090E0892B29F00E94290CBA
:1015D00081110C9400000895FC01A48DA80FB92F6F
:1015E000B11DA35ABF4F2C91848D90E001968F734B
:1015F0009927848FA689B7892C93A089B1898C916A
:1016000080648C93938D848D981306C00288F3892F
:10161000E02D80818F7D80830895CF93DF93EC014F
:10162000888D8823B9F0AA89BB89E889F9898C91CA
:1016300085FD03C0808186FD0DC00FB607FCF7CF86
:101640008C9185FFF2CF808185FFEDCFCE010E9486
:10165000EC0AE9CFDF91CF910895EF92FF920F93BB
:101660001F93CF93DF93EC0181E0888F9B8D8C8D4E
:10167000981316C0E889F989808185FF11C0EE8929
:10168000FF896083E889F98980818064808381E0B3
:1016900090E0DF91CF911F910F91FF90EF9008950F
:1016A000F62E0B8D10E00F5F1F4F0F731127E02EEA
:1016B0008C8D8E110CC00FB607FCFACFE889F98922
:1016C000808185FFF5CFCE010E94EC0AF1CFEB8D32
:1016D000EC0FFD2FF11DE35AFF4FF0820B8FEA89CB
:1016E000FB8980818062D2CFCF92DF92EF92FF920E
:1016F0001F93CF93DF93EC016A017B01122F60EC03
:1017000076EC8DE290E0A70196010E94B91121507C
:101710003109410951095695479537952795E8892B
:10172000F98982E08083211580E1380798F0E88903
:10173000F989108260E673EE86E190E0A7019601D8
:101740000E94B91121503109410951095695479517
:1017500037952795EC85FD853083EE85FF852083C1
:10176000188E1068EC89FD891083EA89FB898081D5
:1017700080618083EA89FB89808188608083EA892F
:10178000FB89808180688083EA89FB8980818F7DE5
:101790008083DF91CF911F91FF90EF90DF90CF90EA
:1017A00008951F920F920FB60F9211242F938F93CB
:1017B0009F93EF93FF93E0910202F09103028081E7
:1017C000E0910802F091090282FD1BC09081809196
:1017D0000B028F5F8F7320910C02821741F0E09112
:1017E0000B02F0E0EE50FE4F958F80930B02FF91BD
:1017F000EF919F918F912F910F900FBE0F901F909F
:1018000018958081F4CF1F920F920FB60F9211247A
:101810002F933F934F935F936F937F938F939F93F8
:10182000AF93BF93EF93FF9382EF91E00E94EC0A96
:10183000FF91EF91BF91AF919F918F917F916F91A8
:101840005F914F913F912F910F900FBE0F901F907E
:10185000189582EF91E00E94B00A21E0892B09F4EB
:1018600020E0822F0895E2EFF1E01382128288EEE9
:1018700093E0A0E0B0E084839583A683B7838FECE8
:1018800090E09183808380E490E09587848729E2CB
:1018900030E0378726872BE230E0318B208B2AE23D
:1018A00030E0338B228B958B848B8CE290E0978B8E
:1018B000868B118E128E138E148E0895AF92BF9266
:1018C000CF92DF92EF92FF920F931F93CF93DF930C
:1018D0006C017B018B01040F151FEB015E01AE183B
:1018E000BF08C017D10759F06991D601ED91FC915D
:1018F0000190F081E02DC6010995892B79F7C5018A
:10190000DF91CF911F910F91FF90EF90DF90CF90DB
:10191000BF90AF900895FB0101900020E9F7319747
:10192000AF01461B570BDC01ED91FC910280F38166
:10193000E02D09946115710511F00C948B0C90E069
:1019400080E00895DC01ED91FC910190F081E02DA3
:1019500009946BED70E00C948B0C0F931F93CF9355
:10196000DF938C01D0E0C0E06115710519F00E9491
:101970008B0CEC01C8010E94A90C8C0F9D1FDF91FC
:10198000CF911F910F9108958F929F92AF92BF9226
:10199000EF92FF920F931F93CF93DF93CDB7DEB7F4
:1019A000A1970FB6F894DEBF0FBECDBF7C01FA0140
:1019B000CB0119A2223008F42AE08E010F5D1F4FDF
:1019C000822E912CB12CA12CBF01A50194010E9463
:1019D000B911F901CA016A300CF5605DD8016E9346
:1019E0008D01232B242B252B79F790E080E0109795
:1019F00021F0BD01C7010E948B0CA1960FB6F8948F
:101A0000DEBF0FBECDBFDF91CF911F910F91FF9031
:101A1000EF90BF90AF909F908F900895695CDECF5C
:101A2000CF92DF92EF92FF920F931F93CF93DF93AA
:101A30002115310581F4DC01ED91FC910190F081DB
:101A4000E02D642FDF91CF911F910F91FF90EF90C8
:101A5000DF90CF9009942A30310501F52AE077FF15
:101A60001DC06A017B01EC016DE20E94A20C8C0199
:101A700044275527BA014C195D096E097F092AE0F0
:101A8000CE010E94C40C800F911FDF91CF911F9156
:101A90000F91FF90EF90DF90CF900895DF91CF915D
:101AA0001F910F91FF90EF90DF90CF900C94C40C9A
:101AB0009A01AB01770F660B770B0C94100D211573
:101AC000310541F4DC01ED91FC910190F081E02DB4
:101AD000642F09940C94C40C9A01AB0170E060E08F
:101AE0000C945F0D2F923F924F925F926F927F9274
:101AF0008F929F92AF92BF92CF92DF92EF92FF921E
:101B00001F93CF93DF93EC016A017B01722EAB012F
:101B10009601CB01B6010E949F116EED70E081111C
:101B200026C046015701E894B7F82FEF3FEF4FE783
:101B30005FE7C501B4010E949F1181110CC02FEF16
:101B40003FEF4FE75FE7C501B4010E945C0F62EE13
:101B500070E0181664F02FEF3FEF4FE75FE4C70126
:101B6000B6010E94DB101816B4F466EE70E0CE01E8
:101B7000DF91CF911F91FF90EF90DF90CF90BF90BA
:101B8000AF909F908F907F906F905F904F903F901D
:101B90002F900C948B0C2FEF3FEF4FE75FECC701BA
:101BA000B6010E945C0F87FDE0CF20E030E0A90184
:101BB000C701B6010E945C0F312C212C87FF09C0A0
:101BC0006DE2CE010E94A20C1C01F7FAF094F7F826
:101BD000F09410E060E070E080E09FE3711641F067
:101BE00020E030E040E251E40E94610F1F5FF6CF39
:101BF000A70196010E947E0E2B013C010E94D30F8B
:101C00004B015C012AE0BC01A401CE010E94C40C7E
:101C10007C01E20CF31C1123B1F1C501B4010E9457
:101C200002109B01AC01C301B2010E947D0E4B0169
:101C30005C016EE2CE010E94A20CE80EF91E11506A
:101C400010F120E030E040E251E4C501B4010E940F
:101C5000E8102B013C010E94D30F4B014AE050E0F9
:101C6000CE010E946C0DE80EF91EB40190E080E0F8
:101C70000E9402109B01AC01C301B2010E947D0EC3
:101C80004B015C01DCCFC701DF91CF911F91FF9029
:101C9000EF90DF90CF90BF90AF909F908F907F900C
:101CA0006F905F904F903F902F9008950C94720D1D
:101CB0000F931F93CF93DF93EC010E94720D8C0161
:101CC000CE010E94A90C800F911FDF91CF911F912F
:101CD0000F91089508950E94DB090E946A0E0E94E8
:101CE000AD00CEEDDAE00E94F4002097E1F30E940F
:101CF000DE0AF9CF0C947D1208955058BB27AA270D
:101D00000E94950E0C94A1100E94931038F00E942E
:101D10009A1020F039F49F3F19F426F40C946910BE
:101D20000EF4E095E7FB0C946310E92F0E94B210CB
:101D300058F3BA17620773078407950720F079F400
:101D4000A6F50C94D4100EF4E0950B2EBA2FA02D0E
:101D50000B01B90190010C01CA01A0011124FF2758
:101D6000591B99F0593F50F4503E68F11A16F04053
:101D7000A22F232F342F4427585FF3CF4695379552
:101D80002795A795F0405395C9F77EF41F16BA0B17
:101D9000620B730B840BBAF09150A1F0FF0FBB1FC5
:101DA000661F771F881FC2F70EC0BA0F621F731F0E
:101DB000841F48F4879577956795B795F7959E3F6B
:101DC00008F0B0CF9395880F08F09927EE0F9795FC
:101DD000879508950E94931060F080E891E009F4DF
:101DE0009EEF0E949A1028F040E851E071F45EEFF7
:101DF0000CC00C9469100C94D410E92FE0780E9468
:101E0000B21040F3092E052AB1F326173707480709
:101E1000590738F00E2E07F8E02569F0E025E06458
:101E20000AC0EF6307F8009407FADB01B9019D01CE
:101E3000DC01CA01AD01EF930E94780F0E94A1104E
:101E40000E942D0F5F91552339F02BED3FE049E4BF
:101E500050FD49EC0C947E0E0895DF93DD27B92FD9
:101E6000BF7740E85FE31616170648075B0718F4CC
:101E7000D92F0E94E0109F938F937F936F930E94BE
:101E80009B11E4E5F0E00E946C100E94A1102F91DC
:101E90003F914F915F910E94FB10DD2351F09058CC
:101EA000A2EA2AED3FE049EC5FE3D0785D270E948B
:101EB000950EDF910C94A1100E943F1008F481E070
:101EC00008950E94750F0C94A1100E949A1058F06A
:101ED0000E94931040F029F45F3F29F00C946310A6
:101EE00051110C94D5100C9469100E94B21068F333
:101EF0009923B1F3552391F3951B550BBB27AA27C3
:101F000062177307840738F09F5F5F4F220F331FFC
:101F1000441FAA1FA9F335D00E2E3AF0E0E832D0C4
:101F200091505040E695001CCAF72BD0FE2F29D0C7
:101F3000660F771F881FBB1F261737074807AB0799
:101F4000B0E809F0BB0B802DBF01FF2793585F4F0E
:101F50003AF09E3F510578F00C9463100C94D51024
:101F60005F3FE4F3983ED4F3869577956795B795F0
:101F7000F7959F5FC9F7880F911D9695879597F9FB
:101F80000895E1E0660F771F881FBB1F6217730774
:101F90008407BA0720F0621B730B840BBA0BEE1F89
:101FA00088F7E09508950E94BA1088F09F5798F03E
:101FB000B92F9927B751B0F0E1F0660F771F881F4E
:101FC000991F1AF0BA95C9F714C0B13091F00E9468
:101FD000D410B1E008950C94D410672F782F88277F
:101FE000B85F39F0B93FCCF3869577956795B3958F
:101FF000D9F73EF490958095709561957F4F8F4FFE
:102000009F4F0895E89409C097FB3EF49095809502
:10201000709561957F4F8F4F9F4F9923A9F0F92FAE
:1020200096E9BB279395F695879577956795B7952C
:10203000F111F8CFFAF4BB0F11F460FF1BC06F5F12
:102040007F4F8F4F9F4F16C0882311F096E911C024
:10205000772321F09EE8872F762F05C0662371F045
:1020600096E8862F70E060E02AF09A95660F771F59
:10207000881FDAF7880F9695879597F90895990F35
:102080000008550FAA0BE0E8FEEF16161706E80742
:10209000F907C0F012161306E407F50798F0621B63
:1020A000730B840B950B39F40A2661F0232B242B38
:1020B000252B21F408950A2609F4A140A6958FEF57
:1020C000811D811D089597F99F6780E870E060E0A9
:1020D00008959FEF80EC0895DF93CF931F930F93A4
:1020E000FF92EF92DF927B018C01689406C0DA2E9A
:1020F000EF010E94FB10FE01E894A5912591359116
:1021000045915591A6F3EF010E94950EFE019701AE
:10211000A801DA9469F7DF90EF90FF900F911F917B
:10212000CF91DF91089500240A9416161706180619
:102130000906089500240A941216130614060506CB
:102140000895092E0394000C11F4882352F0BB0F5C
:1021500040F4BF2B11F460FF04C06F5F7F4F8F4FBF
:102160009F4F089557FD9058440F551F59F05F3FFA
:1021700071F04795880F97FB991F61F09F3F79F0A9
:1021800087950895121613061406551FF2CF46952B
:10219000F1DF08C0161617061806991FF1CF8695AD
:1021A0007105610508940895E894BB276627772791
:1021B000CB0197F908950E943F1008F48FEF08951E
:1021C0009B01AC0160E070E080E89FE30C94610F3C
:1021D0000E94FB100C94A1100E94931038F00E94F2
:1021E0009A1020F0952311F00C9463100C94691050
:1021F00011240C94D5100E94B21070F3959FC1F376
:10220000950F50E0551F629FF001729FBB27F00DA4
:10221000B11D639FAA27F00DB11DAA1F649F6627F9
:10222000B00DA11D661F829F2227B00DA11D621F48
:10223000739FB00DA11D621F839FA00D611D221F02
:10224000749F3327A00D611D231F849F600D211DE6
:10225000822F762F6A2F11249F5750409AF0F1F069
:1022600088234AF0EE0FFF1FBB1F661F771F881FD2
:1022700091505040A9F79E3F510580F00C94631097
:102280000C94D5105F3FE4F3983ED4F38695779590
:102290006795B795F795E7959F5FC1F7FE2B880F78
:1022A000911D9695879597F9089519F416F40C9455
:1022B00069100C94A4110E94BA10B8F39923C9F3C1
:1022C000B6F39F57550B87FF0E94B2110024A0E67A
:1022D00040EA900180585695979528F4805C660FE7
:1022E000771F881F20F026173707480730F4621B36
:1022F000730B840B202931294A2BA6951794079438
:10230000202531254A2758F7660F771F881F20F0B0
:1023100026173707480730F4620B730B840B200D28
:10232000311D411DA09581F7B901842F9158880F67
:102330009695879508959B01AC010C94E8100E9436
:102340003F10880B990B08959F3F31F0915020F476
:10235000879577956795B795880F911D9695879581
:1023600097F9089591505040660F771F881FD2F754
:102370000895A1E21A2EAA1BBB1BFD010DC0AA1FC6
:10238000BB1FEE1FFF1FA217B307E407F50720F0DE
:10239000A21BB30BE40BF50B661F771F881F991F59
:1023A0001A9469F760957095809590959B01AC01A2
:1023B000BD01CF010895EE0FFF1F0590F491E02DB0
:1023C00009940F931F93CF93DF938230910510F4FC
:1023D00082E090E0E0919102F091920230E020E002
:1023E000B0E0A0E0309799F42115310509F44AC016
:1023F000281B390B24303105D8F58A819B81611562
:10240000710589F1FB0193838283FE0111C0408134
:1024100051810281138148175907E0F04817590785
:1024200099F4109761F012960C93129713961C93DF
:102430003296CF01DF91CF911F910F9108950093B4
:10244000910210939202F4CF2115310551F04217F9
:10245000530738F0A901DB019A01BD01DF01F80142
:10246000C1CFEF01F9CF9093920280939102CDCF2B
:10247000FE01E20FF31F81939193225031093983BA
:102480002883D7CF20918F0230919002232B41F4E3
:1024900020916200309163003093900220938F026C
:1024A00020916000309161002115310541F42DB774
:1024B0003EB74091640050916500241B350BE091BC
:1024C0008F02F0919002E217F307A0F42E1B3F0B4E
:1024D0002817390778F0AC014E5F5F4F2417350796
:1024E00048F04E0F5F1F5093900240938F028193EC
:1024F00091939FCFF0E0E0E09CCFCF93DF930097E4
:10250000E9F0FC01329713821282A0919102B091FE
:102510009202ED0130E020E01097A1F4208131819A
:10252000820F931F20918F02309190022817390754
:1025300009F061C0F0939002E0938F02DF91CF9198
:102540000895EA01CE17DF07E8F54A815B819E0115
:1025500041155105B1F7E901FB83EA83499159918E
:10256000C40FD51FEC17FD0761F48081918102969D
:10257000840F951FE90199838883828193819B83CE
:102580008A83F0E0E0E012968D919C91139700977A
:10259000B9F52D913C911197CD010296820F931FB1
:1025A00020918F02309190022817390739F6309721
:1025B00051F51092920210929102B0939002A09362
:1025C0008F02BCCFD383C28340815181840F951F7A
:1025D000C817D90761F44E5F5F4F88819981480F12
:1025E000591F518340838A819B8193838283211564
:1025F000310509F0B0CFF0939202E09391029ECFA3
:10260000FD01DC01C0CF13821282D7CFFB01DC01B8
:102610004150504048F001900D920020C9F701C090
:0E2620001D9241505040E0F70895F894FFCF0E
:10262E0000009302800017B7D138AE47E13D00009D
:10263E00803F4C49533344482074657374210043E2
:10264E006F756C646E74207374617274004C4953B0
:10265E0033444820666F756E64210052616E676563
:10266E00203D200047000000000062029102380267
:10267E003F02520261024C495333444800000000AD
:10268E00004F058D054E05FA075005000000002D80
:10269E000B5E0CB00ACA0ABC0A0D0B0D0A006E6165
:0A26AE006E00696E66006F7666002C
:107E000001C0AEC011248FE598E09EBF8DBF84B73E
:107E1000882361F0982F9A70923041F081FF02C060
:107E200097EF94BF282E80E0B6D0EAC085E08EBDE3
:107E300082E08BB988E18AB986E880BD89E189B999
:107E40008EE0A9D0B89A84E024E23DEF44E051E00E
:107E50003DBD2CBD48BF08B602FEFDCF98B39527A7
:107E600098BBA8955F9902C0815091F78DD081345D
:107E700061F48AD0182F93D01238E9F0113811F438
:107E800088E001C083E07CD068C0823411F484E1D2
:107E900003C0853419F485E08AD05FC0853539F494
:107EA00073D0C82F71D0D82FCC0FDD1F55C08635A9
:107EB00021F484E07CD080E0E6CF843681F564D084
:107EC00063D0182F61D0D82E012F90E6E92EF12C27
:107ED0005BD0F70181937F010150D1F760D0F5E4C9
:107EE000DF1201C0FFCF40E050E063E0CE0138D0A8
:107EF0007E0180E6C82ED12CF601419151916F018F
:107F000061E0C7012DD01250F2E0EF0EF11C11110B
:107F1000F3CF40E050E065E0CE0122D01EC08437B0
:107F200071F432D031D0F82E2FD039D08E01F80133
:107F300085918F0125D0FA94F110F9CF0EC08537C5
:107F400039F42DD08EE11CD085E91AD082E09BCF88
:107F5000813511F488E01FD022D080E111D086CF86
:107F6000FC010A0167BFE895112407B600FCFDCFAC
:107F7000667029F0452B19F481E187BFE8950895D3
:107F80005D9BFECF8CB908955F9BFECF5C9901C0CD
:107F9000A8958CB1089598E191BD81BD0895F4DF55
:107FA000803219F088E0F7DFFFCF84E1E9CFCF938B
:0C7FB000C82FEADFC150E9F7CF91F1CFF4
:027FFE00000879
:0400000300007E007B
:00000001FF
